:100000000C9434000C9446000C9446000C9446006A
:100010000C9446000C9446000C9446000C94460048
:100020000C9446000C9446000C9446000C94460038
:100030000C9446000C9446000C9446000C94460028
:100040000C9446000C9446000C9446000C94460018
:100050000C9446000C9446000C9446000C94460008
:100060000C9446000C94460011241FBECFEFD8E03C
:10007000DEBFCDBF21E0A0E0B1E001C01D92A13004
:10008000B207E1F70E941C010C9421010C940000BE
:100090009C01AB018830910580F481E090E001C0C3
:1000A000880F2A95EAF79AB16130710519F4892B06
:1000B0008AB9089580958923FBCFBC0168507109E6
:1000C0006630710580F481E090E001C0880F6A9588
:1000D000EAF794B14130510519F4892B84B9089598
:1000E00080958923FBCF2E5031092630310560F4ED
:1000F00081E090E001C0880F2A95EAF797B141307E
:10010000510519F4892B87B9089580958923FBCF70
:100110009C01AB018830910580F481E090E001C042
:10012000880F2A95EAF79BB16130710519F4892B84
:100130008BB9089580958923FBCFBC016850710964
:100140006630710580F481E090E001C0880F6A9507
:10015000EAF795B14130510519F4892B85B9089515
:1001600080958923FBCF2E5031092630310560F46C
:1001700081E090E001C0880F2A95EAF798B14130FC
:10018000510519F4892B88B9089580958923FBCFEF
:100190009C018830910540F489B190E002C09595AA
:1001A00087952A95E2F70DC0AC01485051094630B9
:1001B000510550F483B190E002C0959587954A951A
:1001C000E2F78170992708952E50310926303105C4
:1001D00010F486B1E2CF90E080E00895462F572FCB
:1001E000BC01415051096109710938F08FE99FE064
:1001F0000197F1F700C00000F4CF089561E070E0CE
:100200008DE090E00C94480061E070E08DE090E0BB
:100210000E94880062E370E080E090E00E94EE00BF
:1002200070E060E08DE090E00E94880062E370E0A2
:1002300080E090E00C94EE000E94FE000E94040119
:06024000FDCFF894FFCF92
:00000001FF

